{
  "_format": "hh-sol-artifact-1",
  "contractName": "blog",
  "sourceName": "contracts/blog.sol",
  "abi": [
    {
      "inputs": [],
      "stateMutability": "payable",
      "type": "constructor"
    },
    {
      "inputs": [
        {
          "internalType": "uint256",
          "name": "",
          "type": "uint256"
        }
      ],
      "name": "blogs",
      "outputs": [
        {
          "internalType": "uint256",
          "name": "id",
          "type": "uint256"
        },
        {
          "internalType": "string",
          "name": "title",
          "type": "string"
        },
        {
          "internalType": "string",
          "name": "content",
          "type": "string"
        },
        {
          "internalType": "address",
          "name": "owner",
          "type": "address"
        },
        {
          "internalType": "string",
          "name": "imageURI",
          "type": "string"
        },
        {
          "internalType": "uint256",
          "name": "timestamp",
          "type": "uint256"
        }
      ],
      "stateMutability": "view",
      "type": "function"
    },
    {
      "inputs": [],
      "name": "cost",
      "outputs": [
        {
          "internalType": "uint256",
          "name": "",
          "type": "uint256"
        }
      ],
      "stateMutability": "view",
      "type": "function"
    },
    {
      "inputs": [
        {
          "internalType": "address",
          "name": "accounAddress",
          "type": "address"
        }
      ],
      "name": "getAccountName",
      "outputs": [
        {
          "internalType": "string",
          "name": "",
          "type": "string"
        }
      ],
      "stateMutability": "view",
      "type": "function"
    },
    {
      "inputs": [],
      "name": "getOwnBlogs",
      "outputs": [
        {
          "components": [
            {
              "internalType": "uint256",
              "name": "id",
              "type": "uint256"
            },
            {
              "internalType": "string",
              "name": "title",
              "type": "string"
            },
            {
              "internalType": "string",
              "name": "content",
              "type": "string"
            },
            {
              "internalType": "address",
              "name": "owner",
              "type": "address"
            },
            {
              "internalType": "string",
              "name": "imageURI",
              "type": "string"
            },
            {
              "internalType": "uint256",
              "name": "timestamp",
              "type": "uint256"
            }
          ],
          "internalType": "struct blog.Blog[]",
          "name": "",
          "type": "tuple[]"
        }
      ],
      "stateMutability": "view",
      "type": "function"
    },
    {
      "inputs": [],
      "name": "getPosts",
      "outputs": [
        {
          "components": [
            {
              "internalType": "uint256",
              "name": "id",
              "type": "uint256"
            },
            {
              "internalType": "string",
              "name": "title",
              "type": "string"
            },
            {
              "internalType": "string",
              "name": "content",
              "type": "string"
            },
            {
              "internalType": "address",
              "name": "owner",
              "type": "address"
            },
            {
              "internalType": "string",
              "name": "imageURI",
              "type": "string"
            },
            {
              "internalType": "uint256",
              "name": "timestamp",
              "type": "uint256"
            }
          ],
          "internalType": "struct blog.Blog[]",
          "name": "",
          "type": "tuple[]"
        }
      ],
      "stateMutability": "view",
      "type": "function"
    },
    {
      "inputs": [],
      "name": "owner",
      "outputs": [
        {
          "internalType": "address",
          "name": "",
          "type": "address"
        }
      ],
      "stateMutability": "view",
      "type": "function"
    },
    {
      "inputs": [
        {
          "internalType": "string",
          "name": "_title",
          "type": "string"
        },
        {
          "internalType": "string",
          "name": "_content",
          "type": "string"
        },
        {
          "internalType": "string",
          "name": "_imageURI",
          "type": "string"
        }
      ],
      "name": "post",
      "outputs": [],
      "stateMutability": "payable",
      "type": "function"
    },
    {
      "inputs": [
        {
          "internalType": "string",
          "name": "_name",
          "type": "string"
        }
      ],
      "name": "setAccountName",
      "outputs": [],
      "stateMutability": "payable",
      "type": "function"
    }
  ],
  "bytecode": "0x60806040526116d0806100136000396000f3fe60806040526004361061007b5760003560e01c806380f052d81161004e57806380f052d81461011d5780638da5cb5b1461015f578063d989c8db1461018a578063eca94dec146101c75761007b565b806313faede6146100805780631606d997146100ab5780632e95adad146100d657806341f3004a146100f2575b600080fd5b34801561008c57600080fd5b506100956101e3565b6040516100a29190610c15565b60405180910390f35b3480156100b757600080fd5b506100c06101e9565b6040516100cd9190610e69565b60405180910390f35b6100f060048036038101906100eb9190610fd4565b61050b565b005b3480156100fe57600080fd5b5061010761055a565b6040516101149190610e69565b60405180910390f35b34801561012957600080fd5b50610144600480360381019061013f9190611049565b6107d9565b604051610156969594939291906110cf565b60405180910390f35b34801561016b57600080fd5b506101746109dd565b6040516101819190611145565b60405180910390f35b34801561019657600080fd5b506101b160048036038101906101ac919061118c565b610a03565b6040516101be91906111b9565b60405180910390f35b6101e160048036038101906101dc91906111db565b610ad3565b005b60025481565b606060005b600380549050811015610506573373ffffffffffffffffffffffffffffffffffffffff166003828154811061022657610225611282565b5b906000526020600020906006020160030160009054906101000a900473ffffffffffffffffffffffffffffffffffffffff1673ffffffffffffffffffffffffffffffffffffffff16036104f3576003805480602002602001604051908101604052809291908181526020016000905b828210156104e757838290600052602060002090600602016040518060c0016040529081600082015481526020016001820180546102d2906112e0565b80601f01602080910402602001604051908101604052809291908181526020018280546102fe906112e0565b801561034b5780601f106103205761010080835404028352916020019161034b565b820191906000526020600020905b81548152906001019060200180831161032e57829003601f168201915b50505050508152602001600282018054610364906112e0565b80601f0160208091040260200160405190810160405280929190818152602001828054610390906112e0565b80156103dd5780601f106103b2576101008083540402835291602001916103dd565b820191906000526020600020905b8154815290600101906020018083116103c057829003601f168201915b505050505081526020016003820160009054906101000a900473ffffffffffffffffffffffffffffffffffffffff1673ffffffffffffffffffffffffffffffffffffffff1673ffffffffffffffffffffffffffffffffffffffff16815260200160048201805461044c906112e0565b80601f0160208091040260200160405190810160405280929190818152602001828054610478906112e0565b80156104c55780601f1061049a576101008083540402835291602001916104c5565b820191906000526020600020905b8154815290600101906020018083116104a857829003601f168201915b5050505050815260200160058201548152505081526020019060010190610295565b50505050915050610508565b80806104fe90611340565b9150506101ee565b505b90565b806000803373ffffffffffffffffffffffffffffffffffffffff1673ffffffffffffffffffffffffffffffffffffffff16815260200190815260200160002090816105569190611534565b5050565b60606003805480602002602001604051908101604052809291908181526020016000905b828210156107d057838290600052602060002090600602016040518060c0016040529081600082015481526020016001820180546105bb906112e0565b80601f01602080910402602001604051908101604052809291908181526020018280546105e7906112e0565b80156106345780601f1061060957610100808354040283529160200191610634565b820191906000526020600020905b81548152906001019060200180831161061757829003601f168201915b5050505050815260200160028201805461064d906112e0565b80601f0160208091040260200160405190810160405280929190818152602001828054610679906112e0565b80156106c65780601f1061069b576101008083540402835291602001916106c6565b820191906000526020600020905b8154815290600101906020018083116106a957829003601f168201915b505050505081526020016003820160009054906101000a900473ffffffffffffffffffffffffffffffffffffffff1673ffffffffffffffffffffffffffffffffffffffff1673ffffffffffffffffffffffffffffffffffffffff168152602001600482018054610735906112e0565b80601f0160208091040260200160405190810160405280929190818152602001828054610761906112e0565b80156107ae5780601f10610783576101008083540402835291602001916107ae565b820191906000526020600020905b81548152906001019060200180831161079157829003601f168201915b505050505081526020016005820154815250508152602001906001019061057e565b50505050905090565b600381815481106107e957600080fd5b9060005260206000209060060201600091509050806000015490806001018054610812906112e0565b80601f016020809104026020016040519081016040528092919081815260200182805461083e906112e0565b801561088b5780601f106108605761010080835404028352916020019161088b565b820191906000526020600020905b81548152906001019060200180831161086e57829003601f168201915b5050505050908060020180546108a0906112e0565b80601f01602080910402602001604051908101604052809291908181526020018280546108cc906112e0565b80156109195780601f106108ee57610100808354040283529160200191610919565b820191906000526020600020905b8154815290600101906020018083116108fc57829003601f168201915b5050505050908060030160009054906101000a900473ffffffffffffffffffffffffffffffffffffffff1690806004018054610954906112e0565b80601f0160208091040260200160405190810160405280929190818152602001828054610980906112e0565b80156109cd5780601f106109a2576101008083540402835291602001916109cd565b820191906000526020600020905b8154815290600101906020018083116109b057829003601f168201915b5050505050908060050154905086565b600160009054906101000a900473ffffffffffffffffffffffffffffffffffffffff1681565b60606000808373ffffffffffffffffffffffffffffffffffffffff1673ffffffffffffffffffffffffffffffffffffffff1681526020019081526020016000208054610a4e906112e0565b80601f0160208091040260200160405190810160405280929190818152602001828054610a7a906112e0565b8015610ac75780601f10610a9c57610100808354040283529160200191610ac7565b820191906000526020600020905b815481529060010190602001808311610aaa57829003601f168201915b50505050509050919050565b60036040518060c0016040528060644442610aee9190611606565b610af89190611669565b81526020018581526020018481526020013373ffffffffffffffffffffffffffffffffffffffff168152602001838152602001428152509080600181540180825580915050600190039060005260206000209060060201600090919091909150600082015181600001556020820151816001019081610b779190611534565b506040820151816002019081610b8d9190611534565b5060608201518160030160006101000a81548173ffffffffffffffffffffffffffffffffffffffff021916908373ffffffffffffffffffffffffffffffffffffffff1602179055506080820151816004019081610bea9190611534565b5060a082015181600501555050505050565b6000819050919050565b610c0f81610bfc565b82525050565b6000602082019050610c2a6000830184610c06565b92915050565b600081519050919050565b600082825260208201905092915050565b6000819050602082019050919050565b610c6581610bfc565b82525050565b600081519050919050565b600082825260208201905092915050565b60005b83811015610ca5578082015181840152602081019050610c8a565b60008484015250505050565b6000601f19601f8301169050919050565b6000610ccd82610c6b565b610cd78185610c76565b9350610ce7818560208601610c87565b610cf081610cb1565b840191505092915050565b600073ffffffffffffffffffffffffffffffffffffffff82169050919050565b6000610d2682610cfb565b9050919050565b610d3681610d1b565b82525050565b600060c083016000830151610d546000860182610c5c565b5060208301518482036020860152610d6c8282610cc2565b91505060408301518482036040860152610d868282610cc2565b9150506060830151610d9b6060860182610d2d565b5060808301518482036080860152610db38282610cc2565b91505060a0830151610dc860a0860182610c5c565b508091505092915050565b6000610ddf8383610d3c565b905092915050565b6000602082019050919050565b6000610dff82610c30565b610e098185610c3b565b935083602082028501610e1b85610c4c565b8060005b85811015610e575784840389528151610e388582610dd3565b9450610e4383610de7565b925060208a01995050600181019050610e1f565b50829750879550505050505092915050565b60006020820190508181036000830152610e838184610df4565b905092915050565b6000604051905090565b600080fd5b600080fd5b600080fd5b600080fd5b7f4e487b7100000000000000000000000000000000000000000000000000000000600052604160045260246000fd5b610ee182610cb1565b810181811067ffffffffffffffff82111715610f0057610eff610ea9565b5b80604052505050565b6000610f13610e8b565b9050610f1f8282610ed8565b919050565b600067ffffffffffffffff821115610f3f57610f3e610ea9565b5b610f4882610cb1565b9050602081019050919050565b82818337600083830152505050565b6000610f77610f7284610f24565b610f09565b905082815260208101848484011115610f9357610f92610ea4565b5b610f9e848285610f55565b509392505050565b600082601f830112610fbb57610fba610e9f565b5b8135610fcb848260208601610f64565b91505092915050565b600060208284031215610fea57610fe9610e95565b5b600082013567ffffffffffffffff81111561100857611007610e9a565b5b61101484828501610fa6565b91505092915050565b61102681610bfc565b811461103157600080fd5b50565b6000813590506110438161101d565b92915050565b60006020828403121561105f5761105e610e95565b5b600061106d84828501611034565b91505092915050565b600082825260208201905092915050565b600061109282610c6b565b61109c8185611076565b93506110ac818560208601610c87565b6110b581610cb1565b840191505092915050565b6110c981610d1b565b82525050565b600060c0820190506110e46000830189610c06565b81810360208301526110f68188611087565b9050818103604083015261110a8187611087565b905061111960608301866110c0565b818103608083015261112b8185611087565b905061113a60a0830184610c06565b979650505050505050565b600060208201905061115a60008301846110c0565b92915050565b61116981610d1b565b811461117457600080fd5b50565b60008135905061118681611160565b92915050565b6000602082840312156111a2576111a1610e95565b5b60006111b084828501611177565b91505092915050565b600060208201905081810360008301526111d38184611087565b905092915050565b6000806000606084860312156111f4576111f3610e95565b5b600084013567ffffffffffffffff81111561121257611211610e9a565b5b61121e86828701610fa6565b935050602084013567ffffffffffffffff81111561123f5761123e610e9a565b5b61124b86828701610fa6565b925050604084013567ffffffffffffffff81111561126c5761126b610e9a565b5b61127886828701610fa6565b9150509250925092565b7f4e487b7100000000000000000000000000000000000000000000000000000000600052603260045260246000fd5b7f4e487b7100000000000000000000000000000000000000000000000000000000600052602260045260246000fd5b600060028204905060018216806112f857607f821691505b60208210810361130b5761130a6112b1565b5b50919050565b7f4e487b7100000000000000000000000000000000000000000000000000000000600052601160045260246000fd5b600061134b82610bfc565b91507fffffffffffffffffffffffffffffffffffffffffffffffffffffffffffffffff820361137d5761137c611311565b5b600182019050919050565b60008190508160005260206000209050919050565b60006020601f8301049050919050565b600082821b905092915050565b6000600883026113ea7fffffffffffffffffffffffffffffffffffffffffffffffffffffffffffffffff826113ad565b6113f486836113ad565b95508019841693508086168417925050509392505050565b6000819050919050565b600061143161142c61142784610bfc565b61140c565b610bfc565b9050919050565b6000819050919050565b61144b83611416565b61145f61145782611438565b8484546113ba565b825550505050565b600090565b611474611467565b61147f818484611442565b505050565b5b818110156114a35761149860008261146c565b600181019050611485565b5050565b601f8211156114e8576114b981611388565b6114c28461139d565b810160208510156114d1578190505b6114e56114dd8561139d565b830182611484565b50505b505050565b600082821c905092915050565b600061150b600019846008026114ed565b1980831691505092915050565b600061152483836114fa565b9150826002028217905092915050565b61153d82610c6b565b67ffffffffffffffff81111561155657611555610ea9565b5b61156082546112e0565b61156b8282856114a7565b600060209050601f83116001811461159e576000841561158c578287015190505b6115968582611518565b8655506115fe565b601f1984166115ac86611388565b60005b828110156115d4578489015182556001820191506020850194506020810190506115af565b868310156115f157848901516115ed601f8916826114fa565b8355505b6001600288020188555050505b505050505050565b600061161182610bfc565b915061161c83610bfc565b925082820190508082111561163457611633611311565b5b92915050565b7f4e487b7100000000000000000000000000000000000000000000000000000000600052601260045260246000fd5b600061167482610bfc565b915061167f83610bfc565b92508261168f5761168e61163a565b5b82820690509291505056fea2646970667358221220dfdb49b175ab6f6832ca467a4800643a88663053a710aa57076cc9efceac226864736f6c63430008110033",
  "linkReferences": {},
  "deployedLinkReferences": {}
}