{
  "_format": "hh-sol-artifact-1",
  "contractName": "blog",
  "sourceName": "contracts/blog.sol",
  "abi": [
    {
      "inputs": [],
      "stateMutability": "payable",
      "type": "constructor"
    },
    {
      "inputs": [
        {
          "internalType": "uint256",
          "name": "",
          "type": "uint256"
        }
      ],
      "name": "blogs",
      "outputs": [
        {
          "internalType": "uint256",
          "name": "id",
          "type": "uint256"
        },
        {
          "internalType": "string",
          "name": "title",
          "type": "string"
        },
        {
          "internalType": "string",
          "name": "content",
          "type": "string"
        },
        {
          "internalType": "address",
          "name": "owner",
          "type": "address"
        },
        {
          "internalType": "string",
          "name": "imageURI",
          "type": "string"
        },
        {
          "internalType": "uint256",
          "name": "timestamp",
          "type": "uint256"
        }
      ],
      "stateMutability": "view",
      "type": "function"
    },
    {
      "inputs": [],
      "name": "cost",
      "outputs": [
        {
          "internalType": "uint256",
          "name": "",
          "type": "uint256"
        }
      ],
      "stateMutability": "view",
      "type": "function"
    },
    {
      "inputs": [
        {
          "internalType": "address",
          "name": "accounAddress",
          "type": "address"
        }
      ],
      "name": "getAccountName",
      "outputs": [
        {
          "internalType": "string",
          "name": "",
          "type": "string"
        }
      ],
      "stateMutability": "view",
      "type": "function"
    },
    {
      "inputs": [],
      "name": "getOwnBlogs",
      "outputs": [
        {
          "components": [
            {
              "internalType": "uint256",
              "name": "id",
              "type": "uint256"
            },
            {
              "internalType": "string",
              "name": "title",
              "type": "string"
            },
            {
              "internalType": "string",
              "name": "content",
              "type": "string"
            },
            {
              "internalType": "address",
              "name": "owner",
              "type": "address"
            },
            {
              "internalType": "string",
              "name": "imageURI",
              "type": "string"
            },
            {
              "internalType": "uint256",
              "name": "timestamp",
              "type": "uint256"
            }
          ],
          "internalType": "struct blog.Blog[]",
          "name": "",
          "type": "tuple[]"
        }
      ],
      "stateMutability": "view",
      "type": "function"
    },
    {
      "inputs": [],
      "name": "getPosts",
      "outputs": [
        {
          "components": [
            {
              "internalType": "uint256",
              "name": "id",
              "type": "uint256"
            },
            {
              "internalType": "string",
              "name": "title",
              "type": "string"
            },
            {
              "internalType": "string",
              "name": "content",
              "type": "string"
            },
            {
              "internalType": "address",
              "name": "owner",
              "type": "address"
            },
            {
              "internalType": "string",
              "name": "imageURI",
              "type": "string"
            },
            {
              "internalType": "uint256",
              "name": "timestamp",
              "type": "uint256"
            }
          ],
          "internalType": "struct blog.Blog[]",
          "name": "",
          "type": "tuple[]"
        }
      ],
      "stateMutability": "view",
      "type": "function"
    },
    {
      "inputs": [
        {
          "internalType": "address",
          "name": "accounAddress",
          "type": "address"
        }
      ],
      "name": "getProfileImage",
      "outputs": [
        {
          "internalType": "string",
          "name": "",
          "type": "string"
        }
      ],
      "stateMutability": "view",
      "type": "function"
    },
    {
      "inputs": [],
      "name": "owner",
      "outputs": [
        {
          "internalType": "address",
          "name": "",
          "type": "address"
        }
      ],
      "stateMutability": "view",
      "type": "function"
    },
    {
      "inputs": [
        {
          "internalType": "string",
          "name": "_title",
          "type": "string"
        },
        {
          "internalType": "string",
          "name": "_content",
          "type": "string"
        },
        {
          "internalType": "string",
          "name": "_imageURI",
          "type": "string"
        }
      ],
      "name": "post",
      "outputs": [],
      "stateMutability": "payable",
      "type": "function"
    },
    {
      "inputs": [
        {
          "internalType": "string",
          "name": "_name",
          "type": "string"
        },
        {
          "internalType": "string",
          "name": "_imageURI",
          "type": "string"
        }
      ],
      "name": "setAccountName",
      "outputs": [],
      "stateMutability": "payable",
      "type": "function"
    }
  ],
  "bytecode": "0x6080604052611866806100136000396000f3fe6080604052600436106100865760003560e01c806380f052d81161005957806380f052d8146101285780638da5cb5b1461016a578063d2c8dd3514610195578063d989c8db146101d2578063eca94dec1461020f57610086565b806313faede61461008b5780631606d997146100b65780631b754146146100e157806341f3004a146100fd575b600080fd5b34801561009757600080fd5b506100a061022b565b6040516100ad9190610d7c565b60405180910390f35b3480156100c257600080fd5b506100cb610231565b6040516100d89190610fd0565b60405180910390f35b6100fb60048036038101906100f6919061113b565b610553565b005b34801561010957600080fd5b506101126105f0565b60405161011f9190610fd0565b60405180910390f35b34801561013457600080fd5b5061014f600480360381019061014a91906111df565b61086f565b60405161016196959493929190611265565b60405180910390f35b34801561017657600080fd5b5061017f610a73565b60405161018c91906112db565b60405180910390f35b3480156101a157600080fd5b506101bc60048036038101906101b79190611322565b610a99565b6040516101c9919061134f565b60405180910390f35b3480156101de57600080fd5b506101f960048036038101906101f49190611322565b610b6a565b604051610206919061134f565b60405180910390f35b61022960048036038101906102249190611371565b610c3a565b005b60035481565b606060005b60048054905081101561054e573373ffffffffffffffffffffffffffffffffffffffff166004828154811061026e5761026d611418565b5b906000526020600020906006020160030160009054906101000a900473ffffffffffffffffffffffffffffffffffffffff1673ffffffffffffffffffffffffffffffffffffffff160361053b576004805480602002602001604051908101604052809291908181526020016000905b8282101561052f57838290600052602060002090600602016040518060c00160405290816000820154815260200160018201805461031a90611476565b80601f016020809104026020016040519081016040528092919081815260200182805461034690611476565b80156103935780601f1061036857610100808354040283529160200191610393565b820191906000526020600020905b81548152906001019060200180831161037657829003601f168201915b505050505081526020016002820180546103ac90611476565b80601f01602080910402602001604051908101604052809291908181526020018280546103d890611476565b80156104255780601f106103fa57610100808354040283529160200191610425565b820191906000526020600020905b81548152906001019060200180831161040857829003601f168201915b505050505081526020016003820160009054906101000a900473ffffffffffffffffffffffffffffffffffffffff1673ffffffffffffffffffffffffffffffffffffffff1673ffffffffffffffffffffffffffffffffffffffff16815260200160048201805461049490611476565b80601f01602080910402602001604051908101604052809291908181526020018280546104c090611476565b801561050d5780601f106104e25761010080835404028352916020019161050d565b820191906000526020600020905b8154815290600101906020018083116104f057829003601f168201915b50505050508152602001600582015481525050815260200190600101906102dd565b50505050915050610550565b8080610546906114d6565b915050610236565b505b90565b816000803373ffffffffffffffffffffffffffffffffffffffff1673ffffffffffffffffffffffffffffffffffffffff168152602001908152602001600020908161059e91906116ca565b5080600160003373ffffffffffffffffffffffffffffffffffffffff1673ffffffffffffffffffffffffffffffffffffffff16815260200190815260200160002090816105eb91906116ca565b505050565b60606004805480602002602001604051908101604052809291908181526020016000905b8282101561086657838290600052602060002090600602016040518060c00160405290816000820154815260200160018201805461065190611476565b80601f016020809104026020016040519081016040528092919081815260200182805461067d90611476565b80156106ca5780601f1061069f576101008083540402835291602001916106ca565b820191906000526020600020905b8154815290600101906020018083116106ad57829003601f168201915b505050505081526020016002820180546106e390611476565b80601f016020809104026020016040519081016040528092919081815260200182805461070f90611476565b801561075c5780601f106107315761010080835404028352916020019161075c565b820191906000526020600020905b81548152906001019060200180831161073f57829003601f168201915b505050505081526020016003820160009054906101000a900473ffffffffffffffffffffffffffffffffffffffff1673ffffffffffffffffffffffffffffffffffffffff1673ffffffffffffffffffffffffffffffffffffffff1681526020016004820180546107cb90611476565b80601f01602080910402602001604051908101604052809291908181526020018280546107f790611476565b80156108445780601f1061081957610100808354040283529160200191610844565b820191906000526020600020905b81548152906001019060200180831161082757829003601f168201915b5050505050815260200160058201548152505081526020019060010190610614565b50505050905090565b6004818154811061087f57600080fd5b90600052602060002090600602016000915090508060000154908060010180546108a890611476565b80601f01602080910402602001604051908101604052809291908181526020018280546108d490611476565b80156109215780601f106108f657610100808354040283529160200191610921565b820191906000526020600020905b81548152906001019060200180831161090457829003601f168201915b50505050509080600201805461093690611476565b80601f016020809104026020016040519081016040528092919081815260200182805461096290611476565b80156109af5780601f10610984576101008083540402835291602001916109af565b820191906000526020600020905b81548152906001019060200180831161099257829003601f168201915b5050505050908060030160009054906101000a900473ffffffffffffffffffffffffffffffffffffffff16908060040180546109ea90611476565b80601f0160208091040260200160405190810160405280929190818152602001828054610a1690611476565b8015610a635780601f10610a3857610100808354040283529160200191610a63565b820191906000526020600020905b815481529060010190602001808311610a4657829003601f168201915b5050505050908060050154905086565b600260009054906101000a900473ffffffffffffffffffffffffffffffffffffffff1681565b6060600160008373ffffffffffffffffffffffffffffffffffffffff1673ffffffffffffffffffffffffffffffffffffffff1681526020019081526020016000208054610ae590611476565b80601f0160208091040260200160405190810160405280929190818152602001828054610b1190611476565b8015610b5e5780601f10610b3357610100808354040283529160200191610b5e565b820191906000526020600020905b815481529060010190602001808311610b4157829003601f168201915b50505050509050919050565b60606000808373ffffffffffffffffffffffffffffffffffffffff1673ffffffffffffffffffffffffffffffffffffffff1681526020019081526020016000208054610bb590611476565b80601f0160208091040260200160405190810160405280929190818152602001828054610be190611476565b8015610c2e5780601f10610c0357610100808354040283529160200191610c2e565b820191906000526020600020905b815481529060010190602001808311610c1157829003601f168201915b50505050509050919050565b60046040518060c0016040528060644442610c55919061179c565b610c5f91906117ff565b81526020018581526020018481526020013373ffffffffffffffffffffffffffffffffffffffff168152602001838152602001428152509080600181540180825580915050600190039060005260206000209060060201600090919091909150600082015181600001556020820151816001019081610cde91906116ca565b506040820151816002019081610cf491906116ca565b5060608201518160030160006101000a81548173ffffffffffffffffffffffffffffffffffffffff021916908373ffffffffffffffffffffffffffffffffffffffff1602179055506080820151816004019081610d5191906116ca565b5060a082015181600501555050505050565b6000819050919050565b610d7681610d63565b82525050565b6000602082019050610d916000830184610d6d565b92915050565b600081519050919050565b600082825260208201905092915050565b6000819050602082019050919050565b610dcc81610d63565b82525050565b600081519050919050565b600082825260208201905092915050565b60005b83811015610e0c578082015181840152602081019050610df1565b60008484015250505050565b6000601f19601f8301169050919050565b6000610e3482610dd2565b610e3e8185610ddd565b9350610e4e818560208601610dee565b610e5781610e18565b840191505092915050565b600073ffffffffffffffffffffffffffffffffffffffff82169050919050565b6000610e8d82610e62565b9050919050565b610e9d81610e82565b82525050565b600060c083016000830151610ebb6000860182610dc3565b5060208301518482036020860152610ed38282610e29565b91505060408301518482036040860152610eed8282610e29565b9150506060830151610f026060860182610e94565b5060808301518482036080860152610f1a8282610e29565b91505060a0830151610f2f60a0860182610dc3565b508091505092915050565b6000610f468383610ea3565b905092915050565b6000602082019050919050565b6000610f6682610d97565b610f708185610da2565b935083602082028501610f8285610db3565b8060005b85811015610fbe5784840389528151610f9f8582610f3a565b9450610faa83610f4e565b925060208a01995050600181019050610f86565b50829750879550505050505092915050565b60006020820190508181036000830152610fea8184610f5b565b905092915050565b6000604051905090565b600080fd5b600080fd5b600080fd5b600080fd5b7f4e487b7100000000000000000000000000000000000000000000000000000000600052604160045260246000fd5b61104882610e18565b810181811067ffffffffffffffff8211171561106757611066611010565b5b80604052505050565b600061107a610ff2565b9050611086828261103f565b919050565b600067ffffffffffffffff8211156110a6576110a5611010565b5b6110af82610e18565b9050602081019050919050565b82818337600083830152505050565b60006110de6110d98461108b565b611070565b9050828152602081018484840111156110fa576110f961100b565b5b6111058482856110bc565b509392505050565b600082601f83011261112257611121611006565b5b81356111328482602086016110cb565b91505092915050565b6000806040838503121561115257611151610ffc565b5b600083013567ffffffffffffffff8111156111705761116f611001565b5b61117c8582860161110d565b925050602083013567ffffffffffffffff81111561119d5761119c611001565b5b6111a98582860161110d565b9150509250929050565b6111bc81610d63565b81146111c757600080fd5b50565b6000813590506111d9816111b3565b92915050565b6000602082840312156111f5576111f4610ffc565b5b6000611203848285016111ca565b91505092915050565b600082825260208201905092915050565b600061122882610dd2565b611232818561120c565b9350611242818560208601610dee565b61124b81610e18565b840191505092915050565b61125f81610e82565b82525050565b600060c08201905061127a6000830189610d6d565b818103602083015261128c818861121d565b905081810360408301526112a0818761121d565b90506112af6060830186611256565b81810360808301526112c1818561121d565b90506112d060a0830184610d6d565b979650505050505050565b60006020820190506112f06000830184611256565b92915050565b6112ff81610e82565b811461130a57600080fd5b50565b60008135905061131c816112f6565b92915050565b60006020828403121561133857611337610ffc565b5b60006113468482850161130d565b91505092915050565b60006020820190508181036000830152611369818461121d565b905092915050565b60008060006060848603121561138a57611389610ffc565b5b600084013567ffffffffffffffff8111156113a8576113a7611001565b5b6113b48682870161110d565b935050602084013567ffffffffffffffff8111156113d5576113d4611001565b5b6113e18682870161110d565b925050604084013567ffffffffffffffff81111561140257611401611001565b5b61140e8682870161110d565b9150509250925092565b7f4e487b7100000000000000000000000000000000000000000000000000000000600052603260045260246000fd5b7f4e487b7100000000000000000000000000000000000000000000000000000000600052602260045260246000fd5b6000600282049050600182168061148e57607f821691505b6020821081036114a1576114a0611447565b5b50919050565b7f4e487b7100000000000000000000000000000000000000000000000000000000600052601160045260246000fd5b60006114e182610d63565b91507fffffffffffffffffffffffffffffffffffffffffffffffffffffffffffffffff8203611513576115126114a7565b5b600182019050919050565b60008190508160005260206000209050919050565b60006020601f8301049050919050565b600082821b905092915050565b6000600883026115807fffffffffffffffffffffffffffffffffffffffffffffffffffffffffffffffff82611543565b61158a8683611543565b95508019841693508086168417925050509392505050565b6000819050919050565b60006115c76115c26115bd84610d63565b6115a2565b610d63565b9050919050565b6000819050919050565b6115e1836115ac565b6115f56115ed826115ce565b848454611550565b825550505050565b600090565b61160a6115fd565b6116158184846115d8565b505050565b5b818110156116395761162e600082611602565b60018101905061161b565b5050565b601f82111561167e5761164f8161151e565b61165884611533565b81016020851015611667578190505b61167b61167385611533565b83018261161a565b50505b505050565b600082821c905092915050565b60006116a160001984600802611683565b1980831691505092915050565b60006116ba8383611690565b9150826002028217905092915050565b6116d382610dd2565b67ffffffffffffffff8111156116ec576116eb611010565b5b6116f68254611476565b61170182828561163d565b600060209050601f8311600181146117345760008415611722578287015190505b61172c85826116ae565b865550611794565b601f1984166117428661151e565b60005b8281101561176a57848901518255600182019150602085019450602081019050611745565b868310156117875784890151611783601f891682611690565b8355505b6001600288020188555050505b505050505050565b60006117a782610d63565b91506117b283610d63565b92508282019050808211156117ca576117c96114a7565b5b92915050565b7f4e487b7100000000000000000000000000000000000000000000000000000000600052601260045260246000fd5b600061180a82610d63565b915061181583610d63565b925082611825576118246117d0565b5b82820690509291505056fea2646970667358221220823afc374fb3af2db1bb70c83d0af572b9d34c86afc5ca45089c8d6549b1728864736f6c63430008110033",
  "linkReferences": {},
  "deployedLinkReferences": {}
}